:1002E70010083F065B4F666D7D077F6F777C395E31
:0202F70079711B
:10000300E4F51EEF14700302009B14700302012A2F
:10001300240260030201B3E4F51EE51EB408005098
:100023006A90002BF828287302004302004902005B
:100033005402005C02006402006F02007A02008531
:10004300D2A4D2A3800FD2A4D2A3C2A28508808057
:100053003AD2A4C2A3D2A2802FD2A4C2A3C2A280A6
:1000630006C2A4D2A3D2A2850A80801FC2A4D2A3AF
:10007300C2A2850B808014C2A4C2A3D2A285118020
:100083008009C2A4C2A3C2A2850F801202FA051E70
:10009300E51EC39408408322E4F51EE51EB4080060
:1000A30050759000ACF82828730200C40200CF02F8
:1000B30000DA0200E50200F00200FB020106020181
:1000C30011D2A4D2A3D2A2850E80804BD2A4D2A3F4
:1000D300C2A2850C808040D2A4C2A3D2A2850D8087
:1000E3008035D2A4C2A3C2A2851080802AC2A4D222
:1000F300A3D2A2850B80801FC2A4D2A3C2A285086B
:10010300808014C2A4C2A3D2A2850F808009C2A496
:10011300C2A3C2A28511801202FA051EE51EC39472
:1001230008500302009E22E4F51EE51EB4080050A9
:100133007090013BF828287302015302015E02010B
:100143006902017402017A02018502019002019B96
:10015300D2A4D2A3D2A2850D808046D2A4D2A3C2B8
:10016300A2850A80803BD2A4C2A3D2A28508808044
:1001730030D2A4C2A3800FC2A4D2A3D2A2850B8083
:10018300801FC2A4D2A3C2A28509808014C2A4C2C4
:10019300A3D2A2850C808009C2A4C2A3C2A2E4F5A3
:1001A300801202FA051EE51EC39408500302012DB6
:0101B3002229
:0402FA007F647E009F
:0B02FE00EF1FAC0670011E4C70F622D2
:1001B400E4F518F519D2A4D2A3D2A2F51875190939
:1001C40074082519F8E6F580751A07751BD0E51B28
:1001D400151BAE1A7002151A4E600BB2A57F0A7E6B
:1001E400001202FE80E87F507EC31202FEE519155C
:1001F4001970021518C3E5186480948050C2E4F5A0
:1002040080F51C751DC8E51D151DAE1C7002151C5E
:100214004E6027751A00751B0AE51B151BAE1A7074
:1002240002151A4E600BB2A57F147E001202FE80E6
:10023400E87FC87E001202FE80CC751C00751D6428
:10024400E51D151DAE1C7002151C4E70030201B491
:070254007F0212000380E9A4
:0300000002025B9E
:0C025B00787FE4F6D8FD75811E0202A237
:100267000201B4E493A3F8E493A34003F68001F2F8
:1002770008DFF48029E493A3F85407240CC8C33398
:10028700C4540F4420C8834004F456800146F6DF67
:10029700E4800B01020408102040809002E7E47E0E
:1002A700019360BCA3FF543F30E509541FFEE4935C
:1002B700A360010ECF54C025E060A840B8E493A323
:1002C700FAE493A3F8E493A3C8C582C8CAC583CA4E
:1002D700F0A3C8C582C8CAC583CADFE9DEE780BE06
:0102F9000004
:00000001FF
