:1001010010083F065B4F666D7D077F6F777C395E18
:02011100797102
:0B011400EF1FAC0670011E4C70F622BD
:10008F00E4F518F519F51875190974082519F8E626
:10009F00F580751A07751BD0E51B151BAE1A70027C
:1000AF00151A4E600BB2A57F0A7E0012011480E86C
:1000BF007F507EC3120114E519151970021518C36C
:1000CF00E5186480948050C2E4F580751A03751B9F
:1000DF00E8E51B151BAE1A7002151A4E600BB2A580
:1000EF007F057E0012011480E87F207E4E120114DE
:0200FF0080D9A6
:03000000020003F8
:0C000300787FE4F6D8FD75811B02004AEE
:10000F0002008FE493A3F8E493A34003F68001F278
:10001F0008DFF48029E493A3F85407240CC8C333F2
:10002F00C4540F4420C8834004F456800146F6DFC1
:10003F00E4800B0102040810204080900101E47E4F
:10004F00019360BCA3FF543F30E509541FFEE493B6
:10005F00A360010ECF54C025E060A840B8E493A37D
:10006F00FAE493A3F8E493A3C8C582C8CAC583CAA8
:10007F00F0A3C8C582C8CAC583CADFE9DEE780BE60
:0101130000EB
:00000001FF
